{
  "address": "0x5e10e5e48c5Cf77eE95D289bec3c92C25926f6bE",
  "abi": [
    {
      "inputs": [
        {
          "internalType": "contract IWorldID",
          "name": "_worldId",
          "type": "address"
        },
        {
          "internalType": "address",
          "name": "_membershipAddr",
          "type": "address"
        }
      ],
      "stateMutability": "nonpayable",
      "type": "constructor"
    },
    {
      "inputs": [],
      "name": "InvalidNullifier",
      "type": "error"
    },
    {
      "anonymous": false,
      "inputs": [
        {
          "indexed": false,
          "internalType": "uint256",
          "name": "new_price",
          "type": "uint256"
        }
      ],
      "name": "MembershipPriceUpdated",
      "type": "event"
    },
    {
      "anonymous": false,
      "inputs": [
        {
          "indexed": false,
          "internalType": "address[]",
          "name": "new_mods",
          "type": "address[]"
        }
      ],
      "name": "ModsUpdated",
      "type": "event"
    },
    {
      "anonymous": false,
      "inputs": [
        {
          "indexed": false,
          "internalType": "address",
          "name": "member",
          "type": "address"
        },
        {
          "indexed": false,
          "internalType": "uint256",
          "name": "fee",
          "type": "uint256"
        }
      ],
      "name": "NewMember",
      "type": "event"
    },
    {
      "anonymous": false,
      "inputs": [
        {
          "indexed": false,
          "internalType": "uint256",
          "name": "n_members",
          "type": "uint256"
        }
      ],
      "name": "NewTeam",
      "type": "event"
    },
    {
      "anonymous": false,
      "inputs": [
        {
          "indexed": true,
          "internalType": "address",
          "name": "previousOwner",
          "type": "address"
        },
        {
          "indexed": true,
          "internalType": "address",
          "name": "newOwner",
          "type": "address"
        }
      ],
      "name": "OwnershipTransferred",
      "type": "event"
    },
    {
      "inputs": [
        {
          "internalType": "address",
          "name": "",
          "type": "address"
        }
      ],
      "name": "UserInfoURI",
      "outputs": [
        {
          "internalType": "string",
          "name": "",
          "type": "string"
        }
      ],
      "stateMutability": "view",
      "type": "function"
    },
    {
      "inputs": [],
      "name": "getMods",
      "outputs": [
        {
          "internalType": "address[]",
          "name": "",
          "type": "address[]"
        }
      ],
      "stateMutability": "view",
      "type": "function"
    },
    {
      "inputs": [
        {
          "internalType": "address",
          "name": "_user",
          "type": "address"
        }
      ],
      "name": "isMember",
      "outputs": [
        {
          "internalType": "bool",
          "name": "",
          "type": "bool"
        }
      ],
      "stateMutability": "view",
      "type": "function"
    },
    {
      "inputs": [
        {
          "internalType": "address",
          "name": "",
          "type": "address"
        }
      ],
      "name": "isMod",
      "outputs": [
        {
          "internalType": "bool",
          "name": "",
          "type": "bool"
        }
      ],
      "stateMutability": "view",
      "type": "function"
    },
    {
      "inputs": [
        {
          "internalType": "string",
          "name": "infoURI",
          "type": "string"
        }
      ],
      "name": "joinWithEth",
      "outputs": [],
      "stateMutability": "payable",
      "type": "function"
    },
    {
      "inputs": [
        {
          "internalType": "string",
          "name": "infoURI",
          "type": "string"
        }
      ],
      "name": "joinWithoutEth",
      "outputs": [],
      "stateMutability": "nonpayable",
      "type": "function"
    },
    {
      "inputs": [],
      "name": "modLimit",
      "outputs": [
        {
          "internalType": "uint8",
          "name": "",
          "type": "uint8"
        }
      ],
      "stateMutability": "view",
      "type": "function"
    },
    {
      "inputs": [
        {
          "internalType": "uint256",
          "name": "",
          "type": "uint256"
        }
      ],
      "name": "mods",
      "outputs": [
        {
          "internalType": "address",
          "name": "",
          "type": "address"
        }
      ],
      "stateMutability": "view",
      "type": "function"
    },
    {
      "inputs": [],
      "name": "owner",
      "outputs": [
        {
          "internalType": "address",
          "name": "",
          "type": "address"
        }
      ],
      "stateMutability": "view",
      "type": "function"
    },
    {
      "inputs": [
        {
          "internalType": "address[]",
          "name": "_members",
          "type": "address[]"
        }
      ],
      "name": "payForTeam",
      "outputs": [],
      "stateMutability": "payable",
      "type": "function"
    },
    {
      "inputs": [],
      "name": "renounceOwnership",
      "outputs": [],
      "stateMutability": "nonpayable",
      "type": "function"
    },
    {
      "inputs": [
        {
          "internalType": "uint256",
          "name": "_newPrice",
          "type": "uint256"
        }
      ],
      "name": "setMembershipPrice",
      "outputs": [],
      "stateMutability": "nonpayable",
      "type": "function"
    },
    {
      "inputs": [
        {
          "internalType": "address[]",
          "name": "_newMods",
          "type": "address[]"
        }
      ],
      "name": "setMods",
      "outputs": [],
      "stateMutability": "nonpayable",
      "type": "function"
    },
    {
      "inputs": [
        {
          "internalType": "address",
          "name": "newOwner",
          "type": "address"
        }
      ],
      "name": "transferOwnership",
      "outputs": [],
      "stateMutability": "nonpayable",
      "type": "function"
    },
    {
      "inputs": [
        {
          "internalType": "address",
          "name": "",
          "type": "address"
        }
      ],
      "name": "usersPaid",
      "outputs": [
        {
          "internalType": "bool",
          "name": "",
          "type": "bool"
        }
      ],
      "stateMutability": "view",
      "type": "function"
    }
  ],
  "transactionHash": "0x15780d2a69dac419607fb639fcac8d159d1bac06c1fe471c2be4334479255f66",
  "args": [
    "0x4bdB8234AD81F26985d257F36a2d2d8c30365546",
    "0x50a8f5B877C2B2b3eeB32d35a33b0fC57bF61Bb5"
  ],
  "numDeployments": 1,
  "solcInputHash": "ac7e70281794acac69b888a78df6797a",
  "bytecode": "0x60806040526004805460ff19166005179055600160075534801561002257600080fd5b506040516113a43803806113a4833981016040819052610041916100d9565b61004a33610089565b600680546001600160a01b039384166001600160a01b0319909116179055600480549190921661010002610100600160a81b031990911617905561012a565b600080546001600160a01b038381166001600160a01b0319831681178455604051919092169283917f8be0079c531659141344cd1fd0a4f28419497f9722a3daafe3b4186f6b6457e09190a35050565b600080604083850312156100eb578182fd5b82516100f681610112565b602084015190925061010781610112565b809150509250929050565b6001600160a01b038116811461012757600080fd5b50565b61126b806101396000396000f3fe6080604052600436106100e85760003560e01c8063715018a61161008a578063c00af42c11610059578063c00af42c1461029d578063de718e62146102bd578063e07540e4146102d0578063f2fde38b146102f057600080fd5b8063715018a6146102065780638988b2841461021b5780638da5cb5b1461024b578063a230c5241461027d57600080fd5b806354e68454116100c657806354e68454146101665780635dcce7ed146101a657806366b9b563146101b957806369d5f38a146101e657600080fd5b80633b33ac32146100ed5780634d078f48146101185780634e1b8e4a14610144575b600080fd5b3480156100f957600080fd5b50610102610310565b60405161010f91906110bf565b60405180910390f35b34801561012457600080fd5b506004546101329060ff1681565b60405160ff909116815260200161010f565b34801561015057600080fd5b5061016461015f366004610fe5565b610372565b005b34801561017257600080fd5b50610196610181366004610f4e565b60026020526000908152604090205460ff1681565b604051901515815260200161010f565b6101646101b4366004610f75565b6104c4565b3480156101c557600080fd5b506101d96101d4366004610f4e565b61064d565b60405161010f919061110c565b3480156101f257600080fd5b5061016461020136600461108f565b6106e7565b34801561021257600080fd5b50610164610806565b34801561022757600080fd5b50610196610236366004610f4e565b60036020526000908152604090205460ff1681565b34801561025757600080fd5b506000546001600160a01b03165b6040516001600160a01b03909116815260200161010f565b34801561028957600080fd5b50610196610298366004610f4e565b61083c565b3480156102a957600080fd5b506102656102b836600461108f565b61091b565b6101646102cb366004610fe5565b610945565b3480156102dc57600080fd5b506101646102eb366004610f75565b610ac7565b3480156102fc57600080fd5b5061016461030b366004610f4e565b610d62565b6060600580548060200260200160405190810160405280929190818152602001828054801561036857602002820191906000526020600020905b81546001600160a01b0316815260019091019060200180831161034a575b5050505050905090565b336000908152600160209081526040909120825161039292840190610e60565b5060048054604051631803aa3360e01b8152339281019290925261010090046001600160a01b031690631803aa3390602401600060405180830381600087803b1580156103de57600080fd5b505af11580156103f2573d6000803e3d6000fd5b505050507f7f48e4f7f3ef2c63408b16a799b8516cb879c145386aedd51a36938a02a1c28333600460019054906101000a90046001600160a01b03166001600160a01b031663e413e2bc6040518163ffffffff1660e01b815260040160206040518083038186803b15801561046657600080fd5b505afa15801561047a573d6000803e3d6000fd5b505050506040513d601f19601f8201168201806040525081019061049e91906110a7565b604080516001600160a01b0390931683526020830191909152015b60405180910390a150565b6004805460408051633904f8af60e21b81529051849361054d9361010090046001600160a01b03169263e413e2bc9281830192602092829003018186803b15801561050e57600080fd5b505afa158015610522573d6000803e3d6000fd5b505050506040513d601f19601f8201168201806040525081019061054691906110a7565b8290610dfd565b3410156105945760405162461bcd60e51b815260206004820152601060248201526f4e6f7420656e6f7567682066756e647360801b60448201526064015b60405180910390fd5b60005b81811015610614576001600260008686858181106105c557634e487b7160e01b600052603260045260246000fd5b90506020020160208101906105da9190610f4e565b6001600160a01b031681526020810191909152604001600020805460ff19169115159190911790558061060c816111ee565b915050610597565b506040518181527fa90ad43b37352ebc1e46954a3f2d064584b9afe4c9dbb1f88d191260e12a410e9060200160405180910390a1505050565b60016020526000908152604090208054610666906111b3565b80601f0160208091040260200160405190810160405280929190818152602001828054610692906111b3565b80156106df5780601f106106b4576101008083540402835291602001916106df565b820191906000526020600020905b8154815290600101906020018083116106c257829003601f168201915b505050505081565b3360009081526003602052604090205460ff168061071e5750336107136000546001600160a01b031690565b6001600160a01b0316145b6107755760405162461bcd60e51b815260206004820152602260248201527f63616c6c6572206973206e6f742061206d6f64657261746f72206f72206f776e60448201526132b960f11b606482015260840161058b565b600480546040516292758960e21b815291820183905261010090046001600160a01b031690630249d62490602401600060405180830381600087803b1580156107bd57600080fd5b505af11580156107d1573d6000803e3d6000fd5b505050507fe3b51bfc59d6e44e4da024e028d277b0284e6695cce36d919aea83e2c7de2843816040516104b991815260200190565b6000546001600160a01b031633146108305760405162461bcd60e51b815260040161058b9061115f565b61083a6000610e10565b565b600480546040516370a0823160e01b81526001600160a01b03848116938201939093526000928392610100900416906370a082319060240160206040518083038186803b15801561088c57600080fd5b505afa1580156108a0573d6000803e3d6000fd5b505050506040513d601f19601f820116820180604052508101906108c491906110a7565b11806108f25750816001600160a01b03166108e76000546001600160a01b031690565b6001600160a01b0316145b8061091557506001600160a01b03821660009081526003602052604090205460ff165b92915050565b6005818154811061092b57600080fd5b6000918252602090912001546001600160a01b0316905081565b600460019054906101000a90046001600160a01b03166001600160a01b031663e413e2bc6040518163ffffffff1660e01b815260040160206040518083038186803b15801561099357600080fd5b505afa1580156109a7573d6000803e3d6000fd5b505050506040513d601f19601f820116820180604052508101906109cb91906110a7565b341015610a0d5760405162461bcd60e51b815260206004820152601060248201526f4e6f7420656e6f7567682066756e647360801b604482015260640161058b565b3360009081526001602090815260409091208251610a2d92840190610e60565b5060048054604051631803aa3360e01b8152339281019290925261010090046001600160a01b031690631803aa3390602401600060405180830381600087803b158015610a7957600080fd5b505af1158015610a8d573d6000803e3d6000fd5b5050604080513381523460208201527f7f48e4f7f3ef2c63408b16a799b8516cb879c145386aedd51a36938a02a1c28393500190506104b9565b6000546001600160a01b03163314610af15760405162461bcd60e51b815260040161058b9061115f565b600554819060008267ffffffffffffffff811115610b1f57634e487b7160e01b600052604160045260246000fd5b604051908082528060200260200182016040528015610b48578160200160208202803683370190505b5060045490915060ff16831115610ba15760405162461bcd60e51b815260206004820152601760248201527f6d6178206e756d626572206f66206d6f64732069732035000000000000000000604482015260640161058b565b60005b82811015610c195760006003600060058481548110610bd357634e487b7160e01b600052603260045260246000fd5b6000918252602080832091909101546001600160a01b031683528201929092526040019020805460ff191691151591909117905580610c11816111ee565b915050610ba4565b5060005b83811015610d0f57858582818110610c4557634e487b7160e01b600052603260045260246000fd5b9050602002016020810190610c5a9190610f4e565b828281518110610c7a57634e487b7160e01b600052603260045260246000fd5b60200260200101906001600160a01b031690816001600160a01b031681525050600160036000888885818110610cc057634e487b7160e01b600052603260045260246000fd5b9050602002016020810190610cd59190610f4e565b6001600160a01b031681526020810191909152604001600020805460ff191691151591909117905580610d07816111ee565b915050610c1d565b508051610d23906005906020840190610ee4565b507f271382085bd3790c7702e021ba0fc6d8369de53f765d04ffcd8fd3c75cde0fea81604051610d5391906110bf565b60405180910390a15050505050565b6000546001600160a01b03163314610d8c5760405162461bcd60e51b815260040161058b9061115f565b6001600160a01b038116610df15760405162461bcd60e51b815260206004820152602660248201527f4f776e61626c653a206e6577206f776e657220697320746865207a65726f206160448201526564647265737360d01b606482015260840161058b565b610dfa81610e10565b50565b6000610e098284611194565b9392505050565b600080546001600160a01b038381166001600160a01b0319831681178455604051919092169283917f8be0079c531659141344cd1fd0a4f28419497f9722a3daafe3b4186f6b6457e09190a35050565b828054610e6c906111b3565b90600052602060002090601f016020900481019282610e8e5760008555610ed4565b82601f10610ea757805160ff1916838001178555610ed4565b82800160010185558215610ed4579182015b82811115610ed4578251825591602001919060010190610eb9565b50610ee0929150610f39565b5090565b828054828255906000526020600020908101928215610ed4579160200282015b82811115610ed457825182546001600160a01b0319166001600160a01b03909116178255602090920191600190910190610f04565b5b80821115610ee05760008155600101610f3a565b600060208284031215610f5f578081fd5b81356001600160a01b0381168114610e09578182fd5b60008060208385031215610f87578081fd5b823567ffffffffffffffff80821115610f9e578283fd5b818501915085601f830112610fb1578283fd5b813581811115610fbf578384fd5b8660208260051b8501011115610fd3578384fd5b60209290920196919550909350505050565b600060208284031215610ff6578081fd5b813567ffffffffffffffff8082111561100d578283fd5b818401915084601f830112611020578283fd5b8135818111156110325761103261121f565b604051601f8201601f19908116603f0116810190838211818310171561105a5761105a61121f565b81604052828152876020848701011115611072578586fd5b826020860160208301379182016020019490945295945050505050565b6000602082840312156110a0578081fd5b5035919050565b6000602082840312156110b8578081fd5b5051919050565b6020808252825182820181905260009190848201906040850190845b818110156111005783516001600160a01b0316835292840192918401916001016110db565b50909695505050505050565b6000602080835283518082850152825b818110156111385785810183015185820160400152820161111c565b818111156111495783604083870101525b50601f01601f1916929092016040019392505050565b6020808252818101527f4f776e61626c653a2063616c6c6572206973206e6f7420746865206f776e6572604082015260600190565b60008160001904831182151516156111ae576111ae611209565b500290565b600181811c908216806111c757607f821691505b602082108114156111e857634e487b7160e01b600052602260045260246000fd5b50919050565b600060001982141561120257611202611209565b5060010190565b634e487b7160e01b600052601160045260246000fd5b634e487b7160e01b600052604160045260246000fdfea2646970667358221220bc4bbd35e4ebae516f889aab7cde34b77a1c77f0f66cfac1a7124b21ffd1254664736f6c63430008040033",
  "devdoc": {
    "kind": "dev",
    "methods": {
      "owner()": {
        "details": "Returns the address of the current owner."
      },
      "renounceOwnership()": {
        "details": "Leaves the contract without owner. It will not be possible to call `onlyOwner` functions anymore. Can only be called by the current owner. NOTE: Renouncing ownership will leave the contract without an owner, thereby removing any functionality that is only available to the owner."
      },
      "transferOwnership(address)": {
        "details": "Transfers ownership of the contract to a new account (`newOwner`). Can only be called by the current owner."
      }
    },
    "stateVariables": {
      "worldId": {
        "details": "worldcoin verification*"
      }
    },
    "version": 1
  },
  "userdoc": {
    "kind": "user",
    "methods": {},
    "version": 1
  },
  "storageLayout": {
    "storage": [
      {
        "astId": 7,
        "contract": "contracts/LepakCore.sol:LepakCore",
        "label": "_owner",
        "offset": 0,
        "slot": "0",
        "type": "t_address"
      },
      {
        "astId": 3596,
        "contract": "contracts/LepakCore.sol:LepakCore",
        "label": "UserInfoURI",
        "offset": 0,
        "slot": "1",
        "type": "t_mapping(t_address,t_string_storage)"
      },
      {
        "astId": 3600,
        "contract": "contracts/LepakCore.sol:LepakCore",
        "label": "usersPaid",
        "offset": 0,
        "slot": "2",
        "type": "t_mapping(t_address,t_bool)"
      },
      {
        "astId": 3604,
        "contract": "contracts/LepakCore.sol:LepakCore",
        "label": "isMod",
        "offset": 0,
        "slot": "3",
        "type": "t_mapping(t_address,t_bool)"
      },
      {
        "astId": 3607,
        "contract": "contracts/LepakCore.sol:LepakCore",
        "label": "modLimit",
        "offset": 0,
        "slot": "4",
        "type": "t_uint8"
      },
      {
        "astId": 3610,
        "contract": "contracts/LepakCore.sol:LepakCore",
        "label": "membership",
        "offset": 1,
        "slot": "4",
        "type": "t_contract(ILepakMembership)3528"
      },
      {
        "astId": 3613,
        "contract": "contracts/LepakCore.sol:LepakCore",
        "label": "mods",
        "offset": 0,
        "slot": "5",
        "type": "t_array(t_address)dyn_storage"
      },
      {
        "astId": 3617,
        "contract": "contracts/LepakCore.sol:LepakCore",
        "label": "worldId",
        "offset": 0,
        "slot": "6",
        "type": "t_contract(IWorldID)3549"
      },
      {
        "astId": 3620,
        "contract": "contracts/LepakCore.sol:LepakCore",
        "label": "groupId",
        "offset": 0,
        "slot": "7",
        "type": "t_uint256"
      },
      {
        "astId": 3624,
        "contract": "contracts/LepakCore.sol:LepakCore",
        "label": "nullifierHashes",
        "offset": 0,
        "slot": "8",
        "type": "t_mapping(t_uint256,t_bool)"
      }
    ],
    "types": {
      "t_address": {
        "encoding": "inplace",
        "label": "address",
        "numberOfBytes": "20"
      },
      "t_array(t_address)dyn_storage": {
        "base": "t_address",
        "encoding": "dynamic_array",
        "label": "address[]",
        "numberOfBytes": "32"
      },
      "t_bool": {
        "encoding": "inplace",
        "label": "bool",
        "numberOfBytes": "1"
      },
      "t_contract(ILepakMembership)3528": {
        "encoding": "inplace",
        "label": "contract ILepakMembership",
        "numberOfBytes": "20"
      },
      "t_contract(IWorldID)3549": {
        "encoding": "inplace",
        "label": "contract IWorldID",
        "numberOfBytes": "20"
      },
      "t_mapping(t_address,t_bool)": {
        "encoding": "mapping",
        "key": "t_address",
        "label": "mapping(address => bool)",
        "numberOfBytes": "32",
        "value": "t_bool"
      },
      "t_mapping(t_address,t_string_storage)": {
        "encoding": "mapping",
        "key": "t_address",
        "label": "mapping(address => string)",
        "numberOfBytes": "32",
        "value": "t_string_storage"
      },
      "t_mapping(t_uint256,t_bool)": {
        "encoding": "mapping",
        "key": "t_uint256",
        "label": "mapping(uint256 => bool)",
        "numberOfBytes": "32",
        "value": "t_bool"
      },
      "t_string_storage": {
        "encoding": "bytes",
        "label": "string",
        "numberOfBytes": "32"
      },
      "t_uint256": {
        "encoding": "inplace",
        "label": "uint256",
        "numberOfBytes": "32"
      },
      "t_uint8": {
        "encoding": "inplace",
        "label": "uint8",
        "numberOfBytes": "1"
      }
    }
  }
}