{
  "address": "0x5E57450486BDaEA2603aAbB25fcFC0DdB272C62E",
  "abi": [
    {
      "inputs": [
        {
          "internalType": "contract IWorldID",
          "name": "_worldId",
          "type": "address"
        },
        {
          "internalType": "address",
          "name": "_membershipAddr",
          "type": "address"
        }
      ],
      "stateMutability": "nonpayable",
      "type": "constructor"
    },
    {
      "inputs": [],
      "name": "InvalidNullifier",
      "type": "error"
    },
    {
      "anonymous": false,
      "inputs": [
        {
          "indexed": true,
          "internalType": "address",
          "name": "previousOwner",
          "type": "address"
        },
        {
          "indexed": true,
          "internalType": "address",
          "name": "newOwner",
          "type": "address"
        }
      ],
      "name": "OwnershipTransferred",
      "type": "event"
    },
    {
      "inputs": [],
      "name": "MembershipPrice",
      "outputs": [
        {
          "internalType": "uint256",
          "name": "",
          "type": "uint256"
        }
      ],
      "stateMutability": "view",
      "type": "function"
    },
    {
      "inputs": [
        {
          "internalType": "address",
          "name": "",
          "type": "address"
        }
      ],
      "name": "UserInfoURI",
      "outputs": [
        {
          "internalType": "string",
          "name": "",
          "type": "string"
        }
      ],
      "stateMutability": "view",
      "type": "function"
    },
    {
      "inputs": [],
      "name": "getMods",
      "outputs": [
        {
          "internalType": "address[]",
          "name": "",
          "type": "address[]"
        }
      ],
      "stateMutability": "view",
      "type": "function"
    },
    {
      "inputs": [
        {
          "internalType": "address",
          "name": "",
          "type": "address"
        }
      ],
      "name": "isMod",
      "outputs": [
        {
          "internalType": "bool",
          "name": "",
          "type": "bool"
        }
      ],
      "stateMutability": "view",
      "type": "function"
    },
    {
      "inputs": [
        {
          "internalType": "string",
          "name": "infoURI",
          "type": "string"
        }
      ],
      "name": "joinWithEth",
      "outputs": [],
      "stateMutability": "payable",
      "type": "function"
    },
    {
      "inputs": [
        {
          "internalType": "string",
          "name": "infoURI",
          "type": "string"
        }
      ],
      "name": "joinWithoutEth",
      "outputs": [],
      "stateMutability": "nonpayable",
      "type": "function"
    },
    {
      "inputs": [],
      "name": "modLimit",
      "outputs": [
        {
          "internalType": "uint8",
          "name": "",
          "type": "uint8"
        }
      ],
      "stateMutability": "view",
      "type": "function"
    },
    {
      "inputs": [
        {
          "internalType": "uint256",
          "name": "",
          "type": "uint256"
        }
      ],
      "name": "mods",
      "outputs": [
        {
          "internalType": "address",
          "name": "",
          "type": "address"
        }
      ],
      "stateMutability": "view",
      "type": "function"
    },
    {
      "inputs": [],
      "name": "owner",
      "outputs": [
        {
          "internalType": "address",
          "name": "",
          "type": "address"
        }
      ],
      "stateMutability": "view",
      "type": "function"
    },
    {
      "inputs": [
        {
          "internalType": "address[]",
          "name": "_members",
          "type": "address[]"
        }
      ],
      "name": "payForTeam",
      "outputs": [],
      "stateMutability": "payable",
      "type": "function"
    },
    {
      "inputs": [],
      "name": "renounceOwnership",
      "outputs": [],
      "stateMutability": "nonpayable",
      "type": "function"
    },
    {
      "inputs": [
        {
          "internalType": "uint256",
          "name": "_newPrice",
          "type": "uint256"
        }
      ],
      "name": "setMembershipPrice",
      "outputs": [],
      "stateMutability": "nonpayable",
      "type": "function"
    },
    {
      "inputs": [
        {
          "internalType": "address[]",
          "name": "_newMods",
          "type": "address[]"
        }
      ],
      "name": "setMods",
      "outputs": [],
      "stateMutability": "nonpayable",
      "type": "function"
    },
    {
      "inputs": [
        {
          "internalType": "address",
          "name": "newOwner",
          "type": "address"
        }
      ],
      "name": "transferOwnership",
      "outputs": [],
      "stateMutability": "nonpayable",
      "type": "function"
    },
    {
      "inputs": [
        {
          "internalType": "address",
          "name": "",
          "type": "address"
        }
      ],
      "name": "usersPaid",
      "outputs": [
        {
          "internalType": "bool",
          "name": "",
          "type": "bool"
        }
      ],
      "stateMutability": "view",
      "type": "function"
    }
  ],
  "transactionHash": "0xd8d96f6c813f7b7fff6ab98ee7425552c5134595681ceb82ca281facf7c9f846",
  "args": [
    "0x4bdB8234AD81F26985d257F36a2d2d8c30365546",
    "0xe0Ae6988B6Dc28564ABF7EE850efD3384559445b"
  ],
  "numDeployments": 1,
  "solcInputHash": "c5280537dd832bdcbd3651ed08ec23eb",
  "bytecode": "0x60e0604052662386f26fc100006004556005805460ff191681179055600160c05234801561002c57600080fd5b5060405161106938038061106983398101604081905261004b916100c2565b61005433610072565b6001600160601b0319606092831b811660a052911b16608052610113565b600080546001600160a01b038381166001600160a01b0319831681178455604051919092169283917f8be0079c531659141344cd1fd0a4f28419497f9722a3daafe3b4186f6b6457e09190a35050565b600080604083850312156100d4578182fd5b82516100df816100fb565b60208401519092506100f0816100fb565b809150509250929050565b6001600160a01b038116811461011057600080fd5b50565b60805160601c60a05160601c60c051610f196101506000396000505060005050600081816104060152818161047b01526107150152610f196000f3fe6080604052600436106100e85760003560e01c8063715018a61161008a578063c00af42c11610059578063c00af42c146102a1578063de718e62146102c1578063e07540e4146102d4578063f2fde38b146102f457600080fd5b8063715018a6146102065780638988b2841461021b5780638da5cb5b1461024b578063b573f5cc1461027d57600080fd5b806354e68454116100c657806354e68454146101665780635dcce7ed146101a657806366b9b563146101b957806369d5f38a146101e657600080fd5b80633b33ac32146100ed5780634d078f48146101185780634e1b8e4a14610144575b600080fd5b3480156100f957600080fd5b50610102610314565b60405161010f9190610d6d565b60405180910390f35b34801561012457600080fd5b506005546101329060ff1681565b60405160ff909116815260200161010f565b34801561015057600080fd5b5061016461015f366004610c93565b610376565b005b34801561017257600080fd5b50610196610181366004610bfc565b60026020526000908152604090205460ff1681565b604051901515815260200161010f565b6101646101b4366004610c23565b61046e565b3480156101c557600080fd5b506101d96101d4366004610bfc565b6105d8565b60405161010f9190610dba565b3480156101f257600080fd5b50610164610201366004610d3d565b610672565b34801561021257600080fd5b5061016461074c565b34801561022757600080fd5b50610196610236366004610bfc565b60036020526000908152604090205460ff1681565b34801561025757600080fd5b506000546001600160a01b03165b6040516001600160a01b03909116815260200161010f565b34801561028957600080fd5b5061029360045481565b60405190815260200161010f565b3480156102ad57600080fd5b506102656102bc366004610d3d565b610782565b6101646102cf366004610c93565b6103d0565b3480156102e057600080fd5b506101646102ef366004610c23565b6107ac565b34801561030057600080fd5b5061016461030f366004610bfc565b610a10565b6060600680548060200260200160405190810160405280929190818152602001828054801561036c57602002820191906000526020600020905b81546001600160a01b0316815260019091019060200180831161034e575b5050505050905090565b3360009081526002602052604090205460ff166103d05760405162461bcd60e51b81526020600482015260136024820152721d5cd95c881a185cdb9d081c185a59081e595d606a1b60448201526064015b60405180910390fd5b33600090815260016020908152604090912082516103f092840190610b0e565b50604051631803aa3360e01b81523360048201527f00000000000000000000000000000000000000000000000000000000000000006001600160a01b031690631803aa33906024015b600060405180830381600087803b15801561045357600080fd5b505af1158015610467573d6000803e3d6000fd5b5050505050565b60008282905090506105117f00000000000000000000000000000000000000000000000000000000000000006001600160a01b031663e413e2bc6040518163ffffffff1660e01b815260040160206040518083038186803b1580156104d257600080fd5b505afa1580156104e6573d6000803e3d6000fd5b505050506040513d601f19601f8201168201806040525081019061050a9190610d55565b8290610aab565b34116105525760405162461bcd60e51b815260206004820152601060248201526f4e6f7420656e6f7567682066756e647360801b60448201526064016103c7565b60005b818110156105d25760016002600086868581811061058357634e487b7160e01b600052603260045260246000fd5b90506020020160208101906105989190610bfc565b6001600160a01b031681526020810191909152604001600020805460ff1916911515919091179055806105ca81610e9c565b915050610555565b50505050565b600160205260009081526040902080546105f190610e61565b80601f016020809104026020016040519081016040528092919081815260200182805461061d90610e61565b801561066a5780601f1061063f5761010080835404028352916020019161066a565b820191906000526020600020905b81548152906001019060200180831161064d57829003601f168201915b505050505081565b3360009081526003602052604090205460ff16806106a957503361069e6000546001600160a01b031690565b6001600160a01b0316145b6107005760405162461bcd60e51b815260206004820152602260248201527f63616c6c6572206973206e6f742061206d6f64657261746f72206f72206f776e60448201526132b960f11b60648201526084016103c7565b6040516292758960e21b8152600481018290527f00000000000000000000000000000000000000000000000000000000000000006001600160a01b031690630249d62490602401610439565b6000546001600160a01b031633146107765760405162461bcd60e51b81526004016103c790610e0d565b6107806000610abe565b565b6006818154811061079257600080fd5b6000918252602090912001546001600160a01b0316905081565b6000546001600160a01b031633146107d65760405162461bcd60e51b81526004016103c790610e0d565b600654819060008267ffffffffffffffff81111561080457634e487b7160e01b600052604160045260246000fd5b60405190808252806020026020018201604052801561082d578160200160208202803683370190505b5060055490915060ff168311156108865760405162461bcd60e51b815260206004820152601760248201527f6d6178206e756d626572206f66206d6f6473206973203500000000000000000060448201526064016103c7565b60005b828110156108fe57600060036000600684815481106108b857634e487b7160e01b600052603260045260246000fd5b6000918252602080832091909101546001600160a01b031683528201929092526040019020805460ff1916911515919091179055806108f681610e9c565b915050610889565b5060005b838110156109f45785858281811061092a57634e487b7160e01b600052603260045260246000fd5b905060200201602081019061093f9190610bfc565b82828151811061095f57634e487b7160e01b600052603260045260246000fd5b60200260200101906001600160a01b031690816001600160a01b0316815250506001600360008888858181106109a557634e487b7160e01b600052603260045260246000fd5b90506020020160208101906109ba9190610bfc565b6001600160a01b031681526020810191909152604001600020805460ff1916911515919091179055806109ec81610e9c565b915050610902565b508051610a08906006906020840190610b92565b505050505050565b6000546001600160a01b03163314610a3a5760405162461bcd60e51b81526004016103c790610e0d565b6001600160a01b038116610a9f5760405162461bcd60e51b815260206004820152602660248201527f4f776e61626c653a206e6577206f776e657220697320746865207a65726f206160448201526564647265737360d01b60648201526084016103c7565b610aa881610abe565b50565b6000610ab78284610e42565b9392505050565b600080546001600160a01b038381166001600160a01b0319831681178455604051919092169283917f8be0079c531659141344cd1fd0a4f28419497f9722a3daafe3b4186f6b6457e09190a35050565b828054610b1a90610e61565b90600052602060002090601f016020900481019282610b3c5760008555610b82565b82601f10610b5557805160ff1916838001178555610b82565b82800160010185558215610b82579182015b82811115610b82578251825591602001919060010190610b67565b50610b8e929150610be7565b5090565b828054828255906000526020600020908101928215610b82579160200282015b82811115610b8257825182546001600160a01b0319166001600160a01b03909116178255602090920191600190910190610bb2565b5b80821115610b8e5760008155600101610be8565b600060208284031215610c0d578081fd5b81356001600160a01b0381168114610ab7578182fd5b60008060208385031215610c35578081fd5b823567ffffffffffffffff80821115610c4c578283fd5b818501915085601f830112610c5f578283fd5b813581811115610c6d578384fd5b8660208260051b8501011115610c81578384fd5b60209290920196919550909350505050565b600060208284031215610ca4578081fd5b813567ffffffffffffffff80821115610cbb578283fd5b818401915084601f830112610cce578283fd5b813581811115610ce057610ce0610ecd565b604051601f8201601f19908116603f01168101908382118183101715610d0857610d08610ecd565b81604052828152876020848701011115610d20578586fd5b826020860160208301379182016020019490945295945050505050565b600060208284031215610d4e578081fd5b5035919050565b600060208284031215610d66578081fd5b5051919050565b6020808252825182820181905260009190848201906040850190845b81811015610dae5783516001600160a01b031683529284019291840191600101610d89565b50909695505050505050565b6000602080835283518082850152825b81811015610de657858101830151858201604001528201610dca565b81811115610df75783604083870101525b50601f01601f1916929092016040019392505050565b6020808252818101527f4f776e61626c653a2063616c6c6572206973206e6f7420746865206f776e6572604082015260600190565b6000816000190483118215151615610e5c57610e5c610eb7565b500290565b600181811c90821680610e7557607f821691505b60208210811415610e9657634e487b7160e01b600052602260045260246000fd5b50919050565b6000600019821415610eb057610eb0610eb7565b5060010190565b634e487b7160e01b600052601160045260246000fd5b634e487b7160e01b600052604160045260246000fdfea26469706673582212201997c6838de78f9012c3d2ead67556f96935ac475acb4cc40c4e8727f8c3404264736f6c63430008040033",
  "devdoc": {
    "kind": "dev",
    "methods": {
      "owner()": {
        "details": "Returns the address of the current owner."
      },
      "renounceOwnership()": {
        "details": "Leaves the contract without owner. It will not be possible to call `onlyOwner` functions anymore. Can only be called by the current owner. NOTE: Renouncing ownership will leave the contract without an owner, thereby removing any functionality that is only available to the owner."
      },
      "transferOwnership(address)": {
        "details": "Transfers ownership of the contract to a new account (`newOwner`). Can only be called by the current owner."
      }
    },
    "stateVariables": {
      "worldId": {
        "details": "worldcoin verification*"
      }
    },
    "version": 1
  },
  "userdoc": {
    "kind": "user",
    "methods": {},
    "version": 1
  },
  "storageLayout": {
    "storage": [
      {
        "astId": 7,
        "contract": "contracts/LepakCore.sol:LepakCore",
        "label": "_owner",
        "offset": 0,
        "slot": "0",
        "type": "t_address"
      },
      {
        "astId": 3570,
        "contract": "contracts/LepakCore.sol:LepakCore",
        "label": "UserInfoURI",
        "offset": 0,
        "slot": "1",
        "type": "t_mapping(t_address,t_string_storage)"
      },
      {
        "astId": 3574,
        "contract": "contracts/LepakCore.sol:LepakCore",
        "label": "usersPaid",
        "offset": 0,
        "slot": "2",
        "type": "t_mapping(t_address,t_bool)"
      },
      {
        "astId": 3578,
        "contract": "contracts/LepakCore.sol:LepakCore",
        "label": "isMod",
        "offset": 0,
        "slot": "3",
        "type": "t_mapping(t_address,t_bool)"
      },
      {
        "astId": 3581,
        "contract": "contracts/LepakCore.sol:LepakCore",
        "label": "MembershipPrice",
        "offset": 0,
        "slot": "4",
        "type": "t_uint256"
      },
      {
        "astId": 3584,
        "contract": "contracts/LepakCore.sol:LepakCore",
        "label": "modLimit",
        "offset": 0,
        "slot": "5",
        "type": "t_uint8"
      },
      {
        "astId": 3590,
        "contract": "contracts/LepakCore.sol:LepakCore",
        "label": "mods",
        "offset": 0,
        "slot": "6",
        "type": "t_array(t_address)dyn_storage"
      },
      {
        "astId": 3601,
        "contract": "contracts/LepakCore.sol:LepakCore",
        "label": "nullifierHashes",
        "offset": 0,
        "slot": "7",
        "type": "t_mapping(t_uint256,t_bool)"
      }
    ],
    "types": {
      "t_address": {
        "encoding": "inplace",
        "label": "address",
        "numberOfBytes": "20"
      },
      "t_array(t_address)dyn_storage": {
        "base": "t_address",
        "encoding": "dynamic_array",
        "label": "address[]",
        "numberOfBytes": "32"
      },
      "t_bool": {
        "encoding": "inplace",
        "label": "bool",
        "numberOfBytes": "1"
      },
      "t_mapping(t_address,t_bool)": {
        "encoding": "mapping",
        "key": "t_address",
        "label": "mapping(address => bool)",
        "numberOfBytes": "32",
        "value": "t_bool"
      },
      "t_mapping(t_address,t_string_storage)": {
        "encoding": "mapping",
        "key": "t_address",
        "label": "mapping(address => string)",
        "numberOfBytes": "32",
        "value": "t_string_storage"
      },
      "t_mapping(t_uint256,t_bool)": {
        "encoding": "mapping",
        "key": "t_uint256",
        "label": "mapping(uint256 => bool)",
        "numberOfBytes": "32",
        "value": "t_bool"
      },
      "t_string_storage": {
        "encoding": "bytes",
        "label": "string",
        "numberOfBytes": "32"
      },
      "t_uint256": {
        "encoding": "inplace",
        "label": "uint256",
        "numberOfBytes": "32"
      },
      "t_uint8": {
        "encoding": "inplace",
        "label": "uint8",
        "numberOfBytes": "1"
      }
    }
  }
}