{
  "address": "0x9DaE7e981E5710478Fddc5E59aFeEade2eE100aC",
  "abi": [
    {
      "inputs": [
        {
          "internalType": "address",
          "name": "_coreAddr",
          "type": "address"
        }
      ],
      "stateMutability": "nonpayable",
      "type": "constructor"
    },
    {
      "anonymous": false,
      "inputs": [
        {
          "indexed": false,
          "internalType": "address",
          "name": "user",
          "type": "address"
        },
        {
          "indexed": false,
          "internalType": "uint256",
          "name": "hh_index",
          "type": "uint256"
        }
      ],
      "name": "AppliedForStay",
      "type": "event"
    },
    {
      "anonymous": false,
      "inputs": [
        {
          "indexed": false,
          "internalType": "address",
          "name": "user",
          "type": "address"
        },
        {
          "indexed": false,
          "internalType": "uint256",
          "name": "hh_index",
          "type": "uint256"
        }
      ],
      "name": "ApprovedForStay",
      "type": "event"
    },
    {
      "anonymous": false,
      "inputs": [
        {
          "indexed": true,
          "internalType": "address",
          "name": "previousOwner",
          "type": "address"
        },
        {
          "indexed": true,
          "internalType": "address",
          "name": "newOwner",
          "type": "address"
        }
      ],
      "name": "OwnershipTransferred",
      "type": "event"
    },
    {
      "anonymous": false,
      "inputs": [
        {
          "indexed": false,
          "internalType": "string",
          "name": "hh_uri",
          "type": "string"
        }
      ],
      "name": "StayAdded",
      "type": "event"
    },
    {
      "inputs": [
        {
          "internalType": "string",
          "name": "stayURI",
          "type": "string"
        },
        {
          "internalType": "uint256[]",
          "name": "_pricesPerRoom",
          "type": "uint256[]"
        }
      ],
      "name": "addStay",
      "outputs": [],
      "stateMutability": "nonpayable",
      "type": "function"
    },
    {
      "inputs": [
        {
          "internalType": "uint256",
          "name": "_stayId",
          "type": "uint256"
        }
      ],
      "name": "applyForStay",
      "outputs": [],
      "stateMutability": "nonpayable",
      "type": "function"
    },
    {
      "inputs": [
        {
          "internalType": "uint256",
          "name": "_stayId",
          "type": "uint256"
        },
        {
          "internalType": "address[]",
          "name": "_applicants",
          "type": "address[]"
        }
      ],
      "name": "approveForStay",
      "outputs": [],
      "stateMutability": "nonpayable",
      "type": "function"
    },
    {
      "inputs": [],
      "name": "coreContract",
      "outputs": [
        {
          "internalType": "contract ILepakCore",
          "name": "",
          "type": "address"
        }
      ],
      "stateMutability": "view",
      "type": "function"
    },
    {
      "inputs": [
        {
          "internalType": "uint256",
          "name": "_stayId",
          "type": "uint256"
        },
        {
          "internalType": "address",
          "name": "_member",
          "type": "address"
        }
      ],
      "name": "isApprovedForStay",
      "outputs": [
        {
          "internalType": "bool",
          "name": "",
          "type": "bool"
        }
      ],
      "stateMutability": "view",
      "type": "function"
    },
    {
      "inputs": [],
      "name": "owner",
      "outputs": [
        {
          "internalType": "address",
          "name": "",
          "type": "address"
        }
      ],
      "stateMutability": "view",
      "type": "function"
    },
    {
      "inputs": [],
      "name": "renounceOwnership",
      "outputs": [],
      "stateMutability": "nonpayable",
      "type": "function"
    },
    {
      "inputs": [
        {
          "internalType": "uint256",
          "name": "",
          "type": "uint256"
        },
        {
          "internalType": "uint256",
          "name": "",
          "type": "uint256"
        }
      ],
      "name": "stayApplications",
      "outputs": [
        {
          "internalType": "address",
          "name": "",
          "type": "address"
        }
      ],
      "stateMutability": "view",
      "type": "function"
    },
    {
      "inputs": [
        {
          "internalType": "uint256",
          "name": "",
          "type": "uint256"
        }
      ],
      "name": "stays",
      "outputs": [
        {
          "internalType": "string",
          "name": "stayURI",
          "type": "string"
        }
      ],
      "stateMutability": "view",
      "type": "function"
    },
    {
      "inputs": [
        {
          "internalType": "address",
          "name": "newOwner",
          "type": "address"
        }
      ],
      "name": "transferOwnership",
      "outputs": [],
      "stateMutability": "nonpayable",
      "type": "function"
    }
  ],
  "transactionHash": "0xc6132f936c4e78b5234cac13aa050a597612c452c6d8352ffbd030cb761886b1",
  "args": [
    "0x5e10e5e48c5Cf77eE95D289bec3c92C25926f6bE"
  ],
  "numDeployments": 1,
  "solcInputHash": "ac7e70281794acac69b888a78df6797a",
  "bytecode": "0x60a060405234801561001057600080fd5b50604051610f95380380610f9583398101604081905261002f9161009d565b6100383361004d565b60601b6001600160601b0319166080526100cb565b600080546001600160a01b038381166001600160a01b0319831681178455604051919092169283917f8be0079c531659141344cd1fd0a4f28419497f9722a3daafe3b4186f6b6457e09190a35050565b6000602082840312156100ae578081fd5b81516001600160a01b03811681146100c4578182fd5b9392505050565b60805160601c610e9061010560003960008181610195015281816101df0152818161042a0152818161068401526107560152610e906000f3fe608060405234801561001057600080fd5b506004361061009e5760003560e01c80638da5cb5b116100665780638da5cb5b1461014c578063c382e39a1461015d578063d40409d41461017d578063e80db5db14610190578063f2fde38b146101b757600080fd5b80633288fccb146100a3578063382ecbb4146100f15780635203663914610106578063715018a61461013157806376c6532614610139575b600080fd5b6100dc6100b1366004610d06565b60009182526004602090815260408084206001600160a01b0393909316845291905290205460ff1690565b60405190151581526020015b60405180910390f35b6101046100ff366004610cee565b6101ca565b005b610119610114366004610d6e565b610377565b6040516001600160a01b0390911681526020016100e8565b6101046103af565b610104610147366004610c19565b610415565b6000546001600160a01b0316610119565b61017061016b366004610cee565b6105cf565b6040516100e89190610d8f565b61010461018b366004610d31565b61066f565b6101197f000000000000000000000000000000000000000000000000000000000000000081565b6101046101c5366004610bd8565b610984565b60405163288c314960e21b81523360048201527f00000000000000000000000000000000000000000000000000000000000000006001600160a01b03169063a230c5249060240160206040518083038186803b15801561022957600080fd5b505afa15801561023d573d6000803e3d6000fd5b505050506040513d601f19601f820116820180604052508101906102619190610bf9565b6102ab5760405162461bcd60e51b815260206004820152601660248201527531b0b63632b91034b9903737ba10309036b2b6b132b960511b60448201526064015b60405180910390fd5b80158015906102bc57506001548111155b6103085760405162461bcd60e51b815260206004820152601960248201527f74686973207374617920696420646f65736e742065786973740000000000000060448201526064016102a2565b600081815260036020908152604080832080546001810182559084529282902090920180546001600160a01b0319163390811790915582519081529081018390527f470b0b5fd4167f7b35ca6d79a4d907767c6ddb2efed8534903cd56ee2d53411f910160405180910390a150565b6003602052816000526040600020818154811061039357600080fd5b6000918252602090912001546001600160a01b03169150829050565b6000546001600160a01b031633146104095760405162461bcd60e51b815260206004820181905260248201527f4f776e61626c653a2063616c6c6572206973206e6f7420746865206f776e657260448201526064016102a2565b6104136000610a4f565b565b6040516322622ca160e21b81523360048201527f00000000000000000000000000000000000000000000000000000000000000006001600160a01b031690638988b2849060240160206040518083038186803b15801561047457600080fd5b505afa158015610488573d6000803e3d6000fd5b505050506040513d601f19601f820116820180604052508101906104ac9190610bf9565b6104ee5760405162461bcd60e51b815260206004820152601360248201527218d85b1b195c881a5cc81b9bdd0818481b5bd9606a1b60448201526064016102a2565b6104fc600180546001019055565b60405180604001604052808383808060200260200160405190810160405280939291908181526020018383602002808284376000920182905250938552505050602090910185905260029061055060015490565b815260208082019290925260400160002082518051919261057692849290910190610a9f565b50602082810151805161058f9260018501920190610aea565b509050507f35234ea318d79d8b916f55f9f9145c5889712b3d716ed239dc05865e8f853bed836040516105c29190610d8f565b60405180910390a1505050565b60026020526000908152604090206001810180546105ec90610de2565b80601f016020809104026020016040519081016040528092919081815260200182805461061890610de2565b80156106655780601f1061063a57610100808354040283529160200191610665565b820191906000526020600020905b81548152906001019060200180831161064857829003601f168201915b5050505050905081565b6040516322622ca160e21b81523360048201527f00000000000000000000000000000000000000000000000000000000000000006001600160a01b031690638988b2849060240160206040518083038186803b1580156106ce57600080fd5b505afa1580156106e2573d6000803e3d6000fd5b505050506040513d601f19601f820116820180604052508101906107069190610bf9565b6107485760405162461bcd60e51b815260206004820152601360248201527218d85b1b195c881a5cc81b9bdd0818481b5bd9606a1b60448201526064016102a2565b8060005b8181101561097d577f00000000000000000000000000000000000000000000000000000000000000006001600160a01b031663a230c5248585848181106107a357634e487b7160e01b600052603260045260246000fd5b90506020020160208101906107b89190610bd8565b6040516001600160e01b031960e084901b1681526001600160a01b03909116600482015260240160206040518083038186803b1580156107f757600080fd5b505afa15801561080b573d6000803e3d6000fd5b505050506040513d601f19601f8201168201806040525081019061082f9190610bf9565b6108865760405162461bcd60e51b815260206004820152602260248201527f4170706c6963616e74206973206e6f742061206d656d626572206f66204c6570604482015261616b60f01b60648201526084016102a2565b60008581526004602052604081206001918686858181106108b757634e487b7160e01b600052603260045260246000fd5b90506020020160208101906108cc9190610bd8565b6001600160a01b031681526020810191909152604001600020805460ff19169115159190911790557f135018eb03934262a193f440c1ef436cbaf912fe553a59f6d63108d1e6f0e34784848381811061093557634e487b7160e01b600052603260045260246000fd5b905060200201602081019061094a9190610bd8565b604080516001600160a01b039092168252602082018890520160405180910390a18061097581610e1d565b91505061074c565b5050505050565b6000546001600160a01b031633146109de5760405162461bcd60e51b815260206004820181905260248201527f4f776e61626c653a2063616c6c6572206973206e6f7420746865206f776e657260448201526064016102a2565b6001600160a01b038116610a435760405162461bcd60e51b815260206004820152602660248201527f4f776e61626c653a206e6577206f776e657220697320746865207a65726f206160448201526564647265737360d01b60648201526084016102a2565b610a4c81610a4f565b50565b600080546001600160a01b038381166001600160a01b0319831681178455604051919092169283917f8be0079c531659141344cd1fd0a4f28419497f9722a3daafe3b4186f6b6457e09190a35050565b828054828255906000526020600020908101928215610ada579160200282015b82811115610ada578251825591602001919060010190610abf565b50610ae6929150610b5d565b5090565b828054610af690610de2565b90600052602060002090601f016020900481019282610b185760008555610ada565b82601f10610b3157805160ff1916838001178555610ada565b82800160010185558215610ada5791820182811115610ada578251825591602001919060010190610abf565b5b80821115610ae65760008155600101610b5e565b80356001600160a01b0381168114610b8957600080fd5b919050565b60008083601f840112610b9f578081fd5b50813567ffffffffffffffff811115610bb6578182fd5b6020830191508360208260051b8501011115610bd157600080fd5b9250929050565b600060208284031215610be9578081fd5b610bf282610b72565b9392505050565b600060208284031215610c0a578081fd5b81518015158114610bf2578182fd5b600080600060408486031215610c2d578182fd5b833567ffffffffffffffff80821115610c44578384fd5b818601915086601f830112610c57578384fd5b813581811115610c6957610c69610e44565b604051601f8201601f19908116603f01168101908382118183101715610c9157610c91610e44565b81604052828152896020848701011115610ca9578687fd5b8260208601602083013786602084830101528097505050506020860135915080821115610cd4578384fd5b50610ce186828701610b8e565b9497909650939450505050565b600060208284031215610cff578081fd5b5035919050565b60008060408385031215610d18578182fd5b82359150610d2860208401610b72565b90509250929050565b600080600060408486031215610d45578283fd5b83359250602084013567ffffffffffffffff811115610d62578283fd5b610ce186828701610b8e565b60008060408385031215610d80578182fd5b50508035926020909101359150565b6000602080835283518082850152825b81811015610dbb57858101830151858201604001528201610d9f565b81811115610dcc5783604083870101525b50601f01601f1916929092016040019392505050565b600181811c90821680610df657607f821691505b60208210811415610e1757634e487b7160e01b600052602260045260246000fd5b50919050565b6000600019821415610e3d57634e487b7160e01b81526011600452602481fd5b5060010190565b634e487b7160e01b600052604160045260246000fdfea2646970667358221220bb4857171601d63f645c210c40c6190a3cc67b8152a9dccf2dd6c068682d0c3664736f6c63430008040033",
  "devdoc": {
    "kind": "dev",
    "methods": {
      "applyForStay(uint256)": {
        "details": "Joining a LTHH is the core function of Lepak Dao Users who want to use the coliving spaces must first be members of the dao and the they need to pass interview with moderators "
      },
      "owner()": {
        "details": "Returns the address of the current owner."
      },
      "renounceOwnership()": {
        "details": "Leaves the contract without owner. It will not be possible to call `onlyOwner` functions anymore. Can only be called by the current owner. NOTE: Renouncing ownership will leave the contract without an owner, thereby removing any functionality that is only available to the owner."
      },
      "transferOwnership(address)": {
        "details": "Transfers ownership of the contract to a new account (`newOwner`). Can only be called by the current owner."
      }
    },
    "version": 1
  },
  "userdoc": {
    "kind": "user",
    "methods": {},
    "version": 1
  },
  "storageLayout": {
    "storage": [
      {
        "astId": 7,
        "contract": "contracts/LepakLifestyle.sol:LepakLifestyle",
        "label": "_owner",
        "offset": 0,
        "slot": "0",
        "type": "t_address"
      },
      {
        "astId": 4034,
        "contract": "contracts/LepakLifestyle.sol:LepakLifestyle",
        "label": "stayIds",
        "offset": 0,
        "slot": "1",
        "type": "t_struct(Counter)2803_storage"
      },
      {
        "astId": 4042,
        "contract": "contracts/LepakLifestyle.sol:LepakLifestyle",
        "label": "stays",
        "offset": 0,
        "slot": "2",
        "type": "t_mapping(t_uint256,t_struct(LepakStay)4006_storage)"
      },
      {
        "astId": 4047,
        "contract": "contracts/LepakLifestyle.sol:LepakLifestyle",
        "label": "stayApplications",
        "offset": 0,
        "slot": "3",
        "type": "t_mapping(t_uint256,t_array(t_address)dyn_storage)"
      },
      {
        "astId": 4053,
        "contract": "contracts/LepakLifestyle.sol:LepakLifestyle",
        "label": "stayApprovals",
        "offset": 0,
        "slot": "4",
        "type": "t_mapping(t_uint256,t_mapping(t_address,t_bool))"
      }
    ],
    "types": {
      "t_address": {
        "encoding": "inplace",
        "label": "address",
        "numberOfBytes": "20"
      },
      "t_array(t_address)dyn_storage": {
        "base": "t_address",
        "encoding": "dynamic_array",
        "label": "address[]",
        "numberOfBytes": "32"
      },
      "t_array(t_uint256)dyn_storage": {
        "base": "t_uint256",
        "encoding": "dynamic_array",
        "label": "uint256[]",
        "numberOfBytes": "32"
      },
      "t_bool": {
        "encoding": "inplace",
        "label": "bool",
        "numberOfBytes": "1"
      },
      "t_mapping(t_address,t_bool)": {
        "encoding": "mapping",
        "key": "t_address",
        "label": "mapping(address => bool)",
        "numberOfBytes": "32",
        "value": "t_bool"
      },
      "t_mapping(t_uint256,t_array(t_address)dyn_storage)": {
        "encoding": "mapping",
        "key": "t_uint256",
        "label": "mapping(uint256 => address[])",
        "numberOfBytes": "32",
        "value": "t_array(t_address)dyn_storage"
      },
      "t_mapping(t_uint256,t_mapping(t_address,t_bool))": {
        "encoding": "mapping",
        "key": "t_uint256",
        "label": "mapping(uint256 => mapping(address => bool))",
        "numberOfBytes": "32",
        "value": "t_mapping(t_address,t_bool)"
      },
      "t_mapping(t_uint256,t_struct(LepakStay)4006_storage)": {
        "encoding": "mapping",
        "key": "t_uint256",
        "label": "mapping(uint256 => struct LepakStay)",
        "numberOfBytes": "32",
        "value": "t_struct(LepakStay)4006_storage"
      },
      "t_string_storage": {
        "encoding": "bytes",
        "label": "string",
        "numberOfBytes": "32"
      },
      "t_struct(Counter)2803_storage": {
        "encoding": "inplace",
        "label": "struct Counters.Counter",
        "members": [
          {
            "astId": 2802,
            "contract": "contracts/LepakLifestyle.sol:LepakLifestyle",
            "label": "_value",
            "offset": 0,
            "slot": "0",
            "type": "t_uint256"
          }
        ],
        "numberOfBytes": "32"
      },
      "t_struct(LepakStay)4006_storage": {
        "encoding": "inplace",
        "label": "struct LepakStay",
        "members": [
          {
            "astId": 4003,
            "contract": "contracts/LepakLifestyle.sol:LepakLifestyle",
            "label": "pricesPerRoom",
            "offset": 0,
            "slot": "0",
            "type": "t_array(t_uint256)dyn_storage"
          },
          {
            "astId": 4005,
            "contract": "contracts/LepakLifestyle.sol:LepakLifestyle",
            "label": "stayURI",
            "offset": 0,
            "slot": "1",
            "type": "t_string_storage"
          }
        ],
        "numberOfBytes": "64"
      },
      "t_uint256": {
        "encoding": "inplace",
        "label": "uint256",
        "numberOfBytes": "32"
      }
    }
  }
}